{
  "contractName": "SupplyChain",
  "abi": [
    {
      "inputs": [],
      "stateMutability": "nonpayable",
      "type": "constructor"
    },
    {
      "anonymous": false,
      "inputs": [
        {
          "indexed": true,
          "internalType": "uint256",
          "name": "medicineId",
          "type": "uint256"
        },
        {
          "indexed": false,
          "internalType": "string",
          "name": "name",
          "type": "string"
        }
      ],
      "name": "MedicineAdded",
      "type": "event"
    },
    {
      "anonymous": false,
      "inputs": [
        {
          "indexed": true,
          "internalType": "uint256",
          "name": "medicineId",
          "type": "uint256"
        },
        {
          "indexed": false,
          "internalType": "enum SupplyChain.Stage",
          "name": "newStage",
          "type": "uint8"
        }
      ],
      "name": "MedicineStageUpdated",
      "type": "event"
    },
    {
      "anonymous": false,
      "inputs": [
        {
          "indexed": true,
          "internalType": "address",
          "name": "participant",
          "type": "address"
        },
        {
          "indexed": false,
          "internalType": "string",
          "name": "role",
          "type": "string"
        }
      ],
      "name": "ParticipantAdded",
      "type": "event"
    },
    {
      "anonymous": false,
      "inputs": [
        {
          "indexed": true,
          "internalType": "uint256",
          "name": "medicineId",
          "type": "uint256"
        },
        {
          "indexed": false,
          "internalType": "string",
          "name": "trackingId",
          "type": "string"
        }
      ],
      "name": "ShipmentCreated",
      "type": "event"
    },
    {
      "anonymous": false,
      "inputs": [
        {
          "indexed": false,
          "internalType": "string",
          "name": "trackingId",
          "type": "string"
        },
        {
          "indexed": false,
          "internalType": "enum SupplyChain.ShipmentStatus",
          "name": "status",
          "type": "uint8"
        }
      ],
      "name": "ShipmentUpdated",
      "type": "event"
    },
    {
      "anonymous": false,
      "inputs": [
        {
          "indexed": true,
          "internalType": "uint256",
          "name": "medicineId",
          "type": "uint256"
        },
        {
          "indexed": false,
          "internalType": "string",
          "name": "action",
          "type": "string"
        },
        {
          "indexed": false,
          "internalType": "address",
          "name": "participant",
          "type": "address"
        }
      ],
      "name": "TransactionRecorded",
      "type": "event"
    },
    {
      "inputs": [
        {
          "internalType": "address",
          "name": "",
          "type": "address"
        }
      ],
      "name": "distributors",
      "outputs": [
        {
          "internalType": "address",
          "name": "addr",
          "type": "address"
        },
        {
          "internalType": "string",
          "name": "name",
          "type": "string"
        },
        {
          "internalType": "string",
          "name": "location",
          "type": "string"
        }
      ],
      "stateMutability": "view",
      "type": "function"
    },
    {
      "inputs": [
        {
          "internalType": "address",
          "name": "",
          "type": "address"
        }
      ],
      "name": "manufacturers",
      "outputs": [
        {
          "internalType": "address",
          "name": "addr",
          "type": "address"
        },
        {
          "internalType": "string",
          "name": "name",
          "type": "string"
        },
        {
          "internalType": "string",
          "name": "location",
          "type": "string"
        }
      ],
      "stateMutability": "view",
      "type": "function"
    },
    {
      "inputs": [],
      "name": "medicineCounter",
      "outputs": [
        {
          "internalType": "uint256",
          "name": "",
          "type": "uint256"
        }
      ],
      "stateMutability": "view",
      "type": "function"
    },
    {
      "inputs": [
        {
          "internalType": "uint256",
          "name": "",
          "type": "uint256"
        }
      ],
      "name": "medicines",
      "outputs": [
        {
          "internalType": "uint256",
          "name": "id",
          "type": "uint256"
        },
        {
          "internalType": "string",
          "name": "name",
          "type": "string"
        },
        {
          "internalType": "string",
          "name": "description",
          "type": "string"
        },
        {
          "internalType": "address",
          "name": "supplier",
          "type": "address"
        },
        {
          "internalType": "address",
          "name": "manufacturer",
          "type": "address"
        },
        {
          "internalType": "address",
          "name": "distributor",
          "type": "address"
        },
        {
          "internalType": "address",
          "name": "retailer",
          "type": "address"
        },
        {
          "internalType": "enum SupplyChain.Stage",
          "name": "stage",
          "type": "uint8"
        }
      ],
      "stateMutability": "view",
      "type": "function"
    },
    {
      "inputs": [],
      "name": "owner",
      "outputs": [
        {
          "internalType": "address",
          "name": "",
          "type": "address"
        }
      ],
      "stateMutability": "view",
      "type": "function"
    },
    {
      "inputs": [
        {
          "internalType": "address",
          "name": "",
          "type": "address"
        }
      ],
      "name": "retailers",
      "outputs": [
        {
          "internalType": "address",
          "name": "addr",
          "type": "address"
        },
        {
          "internalType": "string",
          "name": "name",
          "type": "string"
        },
        {
          "internalType": "string",
          "name": "location",
          "type": "string"
        }
      ],
      "stateMutability": "view",
      "type": "function"
    },
    {
      "inputs": [
        {
          "internalType": "string",
          "name": "",
          "type": "string"
        }
      ],
      "name": "shipments",
      "outputs": [
        {
          "internalType": "uint256",
          "name": "medicineId",
          "type": "uint256"
        },
        {
          "internalType": "address",
          "name": "sender",
          "type": "address"
        },
        {
          "internalType": "address",
          "name": "receiver",
          "type": "address"
        },
        {
          "internalType": "string",
          "name": "trackingId",
          "type": "string"
        },
        {
          "internalType": "enum SupplyChain.ShipmentStatus",
          "name": "status",
          "type": "uint8"
        }
      ],
      "stateMutability": "view",
      "type": "function"
    },
    {
      "inputs": [
        {
          "internalType": "address",
          "name": "",
          "type": "address"
        }
      ],
      "name": "suppliers",
      "outputs": [
        {
          "internalType": "address",
          "name": "addr",
          "type": "address"
        },
        {
          "internalType": "string",
          "name": "name",
          "type": "string"
        },
        {
          "internalType": "string",
          "name": "location",
          "type": "string"
        }
      ],
      "stateMutability": "view",
      "type": "function"
    },
    {
      "inputs": [
        {
          "internalType": "uint256",
          "name": "",
          "type": "uint256"
        }
      ],
      "name": "transactions",
      "outputs": [
        {
          "internalType": "uint256",
          "name": "medicineId",
          "type": "uint256"
        },
        {
          "internalType": "address",
          "name": "participant",
          "type": "address"
        },
        {
          "internalType": "string",
          "name": "action",
          "type": "string"
        },
        {
          "internalType": "uint256",
          "name": "timestamp",
          "type": "uint256"
        }
      ],
      "stateMutability": "view",
      "type": "function"
    },
    {
      "inputs": [
        {
          "internalType": "address",
          "name": "newOwner",
          "type": "address"
        }
      ],
      "name": "transferOwnership",
      "outputs": [],
      "stateMutability": "nonpayable",
      "type": "function"
    },
    {
      "inputs": [
        {
          "internalType": "string",
          "name": "_name",
          "type": "string"
        },
        {
          "internalType": "string",
          "name": "_description",
          "type": "string"
        }
      ],
      "name": "addMedicine",
      "outputs": [],
      "stateMutability": "nonpayable",
      "type": "function"
    },
    {
      "inputs": [
        {
          "internalType": "address",
          "name": "_addr",
          "type": "address"
        },
        {
          "internalType": "string",
          "name": "_name",
          "type": "string"
        },
        {
          "internalType": "string",
          "name": "_location",
          "type": "string"
        }
      ],
      "name": "addSupplier",
      "outputs": [],
      "stateMutability": "nonpayable",
      "type": "function"
    },
    {
      "inputs": [
        {
          "internalType": "address",
          "name": "_addr",
          "type": "address"
        },
        {
          "internalType": "string",
          "name": "_name",
          "type": "string"
        },
        {
          "internalType": "string",
          "name": "_location",
          "type": "string"
        }
      ],
      "name": "addManufacturer",
      "outputs": [],
      "stateMutability": "nonpayable",
      "type": "function"
    },
    {
      "inputs": [
        {
          "internalType": "address",
          "name": "_addr",
          "type": "address"
        },
        {
          "internalType": "string",
          "name": "_name",
          "type": "string"
        },
        {
          "internalType": "string",
          "name": "_location",
          "type": "string"
        }
      ],
      "name": "addDistributor",
      "outputs": [],
      "stateMutability": "nonpayable",
      "type": "function"
    },
    {
      "inputs": [
        {
          "internalType": "address",
          "name": "_addr",
          "type": "address"
        },
        {
          "internalType": "string",
          "name": "_name",
          "type": "string"
        },
        {
          "internalType": "string",
          "name": "_location",
          "type": "string"
        }
      ],
      "name": "addRetailer",
      "outputs": [],
      "stateMutability": "nonpayable",
      "type": "function"
    },
    {
      "inputs": [
        {
          "internalType": "uint256",
          "name": "_medicineID",
          "type": "uint256"
        },
        {
          "internalType": "string",
          "name": "_note",
          "type": "string"
        }
      ],
      "name": "supplyRawMaterials",
      "outputs": [],
      "stateMutability": "nonpayable",
      "type": "function"
    },
    {
      "inputs": [
        {
          "internalType": "uint256",
          "name": "_medicineID",
          "type": "uint256"
        },
        {
          "internalType": "string",
          "name": "_note",
          "type": "string"
        }
      ],
      "name": "manufactureMedicine",
      "outputs": [],
      "stateMutability": "nonpayable",
      "type": "function"
    },
    {
      "inputs": [
        {
          "internalType": "uint256",
          "name": "_medicineID",
          "type": "uint256"
        },
        {
          "internalType": "string",
          "name": "_note",
          "type": "string"
        }
      ],
      "name": "distributeMedicine",
      "outputs": [],
      "stateMutability": "nonpayable",
      "type": "function"
    },
    {
      "inputs": [
        {
          "internalType": "uint256",
          "name": "_medicineID",
          "type": "uint256"
        },
        {
          "internalType": "string",
          "name": "_note",
          "type": "string"
        }
      ],
      "name": "retailMedicine",
      "outputs": [],
      "stateMutability": "nonpayable",
      "type": "function"
    },
    {
      "inputs": [
        {
          "internalType": "uint256",
          "name": "_medicineID",
          "type": "uint256"
        },
        {
          "internalType": "string",
          "name": "_note",
          "type": "string"
        }
      ],
      "name": "sellMedicine",
      "outputs": [],
      "stateMutability": "nonpayable",
      "type": "function"
    },
    {
      "inputs": [
        {
          "internalType": "uint256",
          "name": "_medicineID",
          "type": "uint256"
        }
      ],
      "name": "getMedicineStage",
      "outputs": [
        {
          "internalType": "string",
          "name": "",
          "type": "string"
        }
      ],
      "stateMutability": "view",
      "type": "function"
    },
    {
      "inputs": [
        {
          "internalType": "uint256",
          "name": "_medicineID",
          "type": "uint256"
        },
        {
          "internalType": "address",
          "name": "_receiver",
          "type": "address"
        },
        {
          "internalType": "string",
          "name": "_trackingId",
          "type": "string"
        }
      ],
      "name": "createShipment",
      "outputs": [],
      "stateMutability": "nonpayable",
      "type": "function"
    },
    {
      "inputs": [
        {
          "internalType": "string",
          "name": "_trackingId",
          "type": "string"
        },
        {
          "internalType": "enum SupplyChain.ShipmentStatus",
          "name": "_status",
          "type": "uint8"
        }
      ],
      "name": "updateShipmentStatus",
      "outputs": [],
      "stateMutability": "nonpayable",
      "type": "function"
    },
    {
      "inputs": [],
      "name": "getTransactions",
      "outputs": [
        {
          "components": [
            {
              "internalType": "uint256",
              "name": "medicineId",
              "type": "uint256"
            },
            {
              "internalType": "address",
              "name": "participant",
              "type": "address"
            },
            {
              "internalType": "string",
              "name": "action",
              "type": "string"
            },
            {
              "internalType": "uint256",
              "name": "timestamp",
              "type": "uint256"
            }
          ],
          "internalType": "struct SupplyChain.Transaction[]",
          "name": "",
          "type": "tuple[]"
        }
      ],
      "stateMutability": "view",
      "type": "function"
    },
    {
      "inputs": [
        {
          "internalType": "uint256",
          "name": "_medicineID",
          "type": "uint256"
        }
      ],
      "name": "getFullMedicineHistory",
      "outputs": [
        {
          "components": [
            {
              "internalType": "string",
              "name": "action",
              "type": "string"
            },
            {
              "internalType": "address",
              "name": "participant",
              "type": "address"
            },
            {
              "internalType": "uint256",
              "name": "timestamp",
              "type": "uint256"
            },
            {
              "internalType": "string",
              "name": "note",
              "type": "string"
            }
          ],
          "internalType": "struct SupplyChain.StatusUpdate[]",
          "name": "",
          "type": "tuple[]"
        }
      ],
      "stateMutability": "view",
      "type": "function"
    }
  ],
  "bytecode": "0x608060405234801561001057600080fd5b50600080546001600160a01b03191633179055612787806100326000396000f3fe608060405234801561001057600080fd5b50600436106101735760003560e01c8063857ddb04116100de578063b5fabfda11610097578063ce90ceff11610071578063ce90ceff1461038e578063d6865b3c146103a1578063e7d5c46a146103b4578063f2fde38b146103c757600080fd5b8063b5fabfda14610341578063c85e766d14610354578063cc6427841461037b57600080fd5b8063857ddb04146102a35780638da5cb5b146102b65780638f4183cc146102e15780639a268f35146102f45780639ace38c214610307578063ac859a4b1461032a57600080fd5b80636153abcc116101305780636153abcc1461022f578063672a1f86146102425780636a992c9f146102555780636b5eb09c1461026857806376a804e21461027b57806383920e901461028e57600080fd5b806316dc15fe1461017857806319234676146101a35780632a4af440146101c3578063310cf3f7146101d85780635ceaef5b146101eb5780635cf723a31461020f575b600080fd5b61018b610186366004611f09565b6103da565b60405161019a93929190611f7b565b60405180910390f35b6101b66101b1366004611fbb565b610517565b60405161019a9190611fd4565b6101d66101d136600461211d565b610727565b005b6101d66101e6366004612191565b610819565b6101fe6101f93660046121d8565b610945565b60405161019a95949392919061223f565b61022261021d366004611fbb565b610a18565b60405161019a9190612280565b6101d661023d366004612191565b610cad565b6101d6610250366004612191565b610df1565b6101d661026336600461211d565b610f35565b61018b610276366004611f09565b61101b565b6101d6610289366004612191565b611047565b610296611185565b60405161019a9190612293565b6101d66102b136600461211d565b6112a0565b6000546102c9906001600160a01b031681565b6040516001600160a01b03909116815260200161019a565b6101d66102ef36600461231c565b611382565b61018b610302366004611f09565b61156f565b61031a610315366004611fbb565b61159b565b60405161019a9493929190612376565b61033360095481565b60405190815260200161019a565b6101d661034f36600461211d565b61166a565b610367610362366004611fbb565b61174c565b60405161019a9897969594939291906123c1565b61018b610389366004611f09565b6118b4565b6101d661039c366004612434565b6118e0565b6101d66103af366004612191565b611a50565b6101d66103c2366004612481565b611b9d565b6101d66103d5366004611f09565b611c95565b600360205260009081526040902080546001820180546001600160a01b039092169291610406906124d7565b80601f0160208091040260200160405190810160405280929190818152602001828054610432906124d7565b801561047f5780601f106104545761010080835404028352916020019161047f565b820191906000526020600020905b81548152906001019060200180831161046257829003601f168201915b505050505090806002018054610494906124d7565b80601f01602080910402602001604051908101604052809291908181526020018280546104c0906124d7565b801561050d5780601f106104e25761010080835404028352916020019161050d565b820191906000526020600020905b8154815290600101906020018083116104f057829003601f168201915b5050505050905083565b606060008211801561052b57506009548211155b61057c5760405162461bcd60e51b815260206004820152601a60248201527f4d65646963696e6520494420646f6573206e6f7420657869737400000000000060448201526064015b60405180910390fd5b600082815260016020908152604080832080548251818502810185019093528083529193909284015b8282101561071c57838290600052602060002090600402016040518060800160405290816000820180546105d8906124d7565b80601f0160208091040260200160405190810160405280929190818152602001828054610604906124d7565b80156106515780601f1061062657610100808354040283529160200191610651565b820191906000526020600020905b81548152906001019060200180831161063457829003601f168201915b505050918352505060018201546001600160a01b031660208201526002820154604082015260038201805460609092019161068b906124d7565b80601f01602080910402602001604051908101604052809291908181526020018280546106b7906124d7565b80156107045780601f106106d957610100808354040283529160200191610704565b820191906000526020600020905b8154815290600101906020018083116106e757829003601f168201915b505050505081525050815260200190600101906105a5565b505050509050919050565b6000546001600160a01b031633146107515760405162461bcd60e51b815260040161057390612511565b604080516060810182526001600160a01b03858116808352602080840187815284860187905260009283526005909152939020825181546001600160a01b0319169216919091178155915190919060018201906107ae9082612587565b50604082015160028201906107c39082612587565b50905050826001600160a01b031660008051602061271283398151915260405161080c906020808252600b908201526a2234b9ba3934b13aba37b960a91b604082015260600190565b60405180910390a2505050565b6000828152600260205260409020600601546001600160a01b031633146108825760405162461bcd60e51b815260206004820152601960248201527f4e6f74207468652061737369676e65642072657461696c6572000000000000006044820152606401610573565b6004600083815260026020526040902060060154600160a01b900460ff1660058111156108b1576108b1612215565b146108ce5760405162461bcd60e51b815260040161057390612647565b60008281526002602052604090819020600601805460ff60a01b1916600560a01b179055518290600080516020612732833981519152906109119060059061266e565b60405180910390a2610941826040518060400160405280600481526020016314dbdb1960e21b8152503384611d29565b5050565b8051602081830181018051600782529282019190930120915280546001820154600283015460038401805493946001600160a01b0393841694939092169261098c906124d7565b80601f01602080910402602001604051908101604052809291908181526020018280546109b8906124d7565b8015610a055780601f106109da57610100808354040283529160200191610a05565b820191906000526020600020905b8154815290600101906020018083116109e857829003601f168201915b5050506004909301549192505060ff1685565b6060600082118015610a2c57506009548211155b610a6e5760405162461bcd60e51b8152602060048201526013602482015272125b9d985b1a59081b59591a58da5b99481251606a1b6044820152606401610573565b60008083815260026020526040902060060154600160a01b900460ff166005811115610a9c57610a9c612215565b03610ac457505060408051808201909152600781526613dc99195c995960ca1b602082015290565b6001600083815260026020526040902060060154600160a01b900460ff166005811115610af357610af3612215565b03610b2957505060408051808201909152601581527414985dc813585d195c9a585b0814dd5c1c1b1a5959605a1b602082015290565b6002600083815260026020526040902060060154600160a01b900460ff166005811115610b5857610b58612215565b03610b8557505060408051808201909152600c81526b13585b9d599858dd1d5c995960a21b602082015290565b6003600083815260026020526040902060060154600160a01b900460ff166005811115610bb457610bb4612215565b03610be057505060408051808201909152600b81526a111a5cdd1c9a589d5d195960aa1b602082015290565b6004600083815260026020526040902060060154600160a01b900460ff166005811115610c0f57610c0f612215565b03610c3657505060408051808201909152600681526514995d185a5b60d21b602082015290565b6005600083815260026020526040902060060154600160a01b900460ff166005811115610c6557610c65612215565b03610c8a57505060408051808201909152600481526314dbdb1960e21b602082015290565b50506040805180820190915260078152662ab735b737bbb760c91b602082015290565b336000908152600560205260409020546001600160a01b0316610d125760405162461bcd60e51b815260206004820152601c60248201527f4e6f7420612072656769737465726564206469737472696275746f72000000006044820152606401610573565b6002600083815260026020526040902060060154600160a01b900460ff166005811115610d4157610d41612215565b14610d5e5760405162461bcd60e51b815260040161057390612647565b60008281526002602052604090206005810180546001600160a01b0319163317905560060180546003919060ff60a01b1916600160a01b830217905550816000805160206127328339815191526003604051610dba919061266e565b60405180910390a2610941826040518060400160405280600b81526020016a111a5cdd1c9a589d5d195960aa1b8152503384611d29565b336000908152600460205260409020546001600160a01b0316610e565760405162461bcd60e51b815260206004820152601d60248201527f4e6f7420612072656769737465726564206d616e7566616374757265720000006044820152606401610573565b6001600083815260026020526040902060060154600160a01b900460ff166005811115610e8557610e85612215565b14610ea25760405162461bcd60e51b815260040161057390612647565b60008281526002602081905260409091206004810180546001600160a01b03191633179055600601805460ff60a01b1916600160a01b830217905550816000805160206127328339815191526002604051610efd919061266e565b60405180910390a2610941826040518060400160405280600c81526020016b13585b9d599858dd1d5c995960a21b8152503384611d29565b6000546001600160a01b03163314610f5f5760405162461bcd60e51b815260040161057390612511565b604080516060810182526001600160a01b03858116808352602080840187815284860187905260009283526004909152939020825181546001600160a01b031916921691909117815591519091906001820190610fbc9082612587565b5060408201516002820190610fd19082612587565b50905050826001600160a01b031660008051602061271283398151915260405161080c906020808252600c908201526b26b0b73ab330b1ba3ab932b960a11b604082015260600190565b600460205260009081526040902080546001820180546001600160a01b039092169291610406906124d7565b336000908152600660205260409020546001600160a01b03166110ac5760405162461bcd60e51b815260206004820152601960248201527f4e6f74206120726567697374657265642072657461696c6572000000000000006044820152606401610573565b6003600083815260026020526040902060060154600160a01b900460ff1660058111156110db576110db612215565b146110f85760405162461bcd60e51b815260040161057390612647565b6000828152600260205260409081902060060180546001600160a81b0319163360ff60a01b191617600160a21b179055518290600080516020612732833981519152906111479060049061266e565b60405180910390a26109418260405180604001604052806012815260200171417661696c61626c6520666f722053616c6560701b8152503384611d29565b60606008805480602002602001604051908101604052809291908181526020016000905b8282101561129757600084815260209081902060408051608081018252600486029092018054835260018101546001600160a01b031693830193909352600283018054929392918401916111fc906124d7565b80601f0160208091040260200160405190810160405280929190818152602001828054611228906124d7565b80156112755780601f1061124a57610100808354040283529160200191611275565b820191906000526020600020905b81548152906001019060200180831161125857829003601f168201915b50505050508152602001600382015481525050815260200190600101906111a9565b50505050905090565b6000546001600160a01b031633146112ca5760405162461bcd60e51b815260040161057390612511565b604080516060810182526001600160a01b03858116808352602080840187815284860187905260009283526006909152939020825181546001600160a01b0319169216919091178155915190919060018201906113279082612587565b506040820151600282019061133c9082612587565b50905050826001600160a01b031660008051602061271283398151915260405161080c906020808252600890820152672932ba30b4b632b960c11b604082015260600190565b6000546001600160a01b031633146113ac5760405162461bcd60e51b815260040161057390612511565b600980549060006113bc83612682565b909155505060408051610100810182526009548152602081018490529081018290526000606082018190526080820181905260a0820181905260c0820181905260e082015260095460009081526002602090815260409091208251815590820151600182019061142c9082612587565b50604082015160028201906114419082612587565b5060608201516003820180546001600160a01b03199081166001600160a01b03938416179091556080840151600484018054831691841691909117905560a08401516005808501805484169285169290921790915560c085015160068501805493841691909416908117845560e086015193926001600160a81b0319161790600160a01b9084908111156114d7576114d7612215565b02179055509050506009547f391a5327e58df0236e727eae6e91d54d5aae7a950c4e6616893611e349f6c64e836040516115119190612280565b60405180910390a26109416009546040518060400160405280600781526020016613dc99195c995960ca1b815250336040518060400160405280601181526020017010985d18da081a5b9a5d1a585b1a5e9959607a1b815250611d29565b600660205260009081526040902080546001820180546001600160a01b039092169291610406906124d7565b600881815481106115ab57600080fd5b60009182526020909120600490910201805460018201546002830180549294506001600160a01b0390911692916115e1906124d7565b80601f016020809104026020016040519081016040528092919081815260200182805461160d906124d7565b801561165a5780601f1061162f5761010080835404028352916020019161165a565b820191906000526020600020905b81548152906001019060200180831161163d57829003601f168201915b5050505050908060030154905084565b6000546001600160a01b031633146116945760405162461bcd60e51b815260040161057390612511565b604080516060810182526001600160a01b03858116808352602080840187815284860187905260009283526003909152939020825181546001600160a01b0319169216919091178155915190919060018201906116f19082612587565b50604082015160028201906117069082612587565b50905050826001600160a01b031660008051602061271283398151915260405161080c9060208082526008908201526729bab8383634b2b960c11b604082015260600190565b6002602052600090815260409020805460018201805491929161176e906124d7565b80601f016020809104026020016040519081016040528092919081815260200182805461179a906124d7565b80156117e75780601f106117bc576101008083540402835291602001916117e7565b820191906000526020600020905b8154815290600101906020018083116117ca57829003601f168201915b5050505050908060020180546117fc906124d7565b80601f0160208091040260200160405190810160405280929190818152602001828054611828906124d7565b80156118755780601f1061184a57610100808354040283529160200191611875565b820191906000526020600020905b81548152906001019060200180831161185857829003601f168201915b5050505060038301546004840154600585015460069095015493946001600160a01b03928316949183169350821691811690600160a01b900460ff1688565b600560205260009081526040902080546001820180546001600160a01b039092169291610406906124d7565b6000838152600260205260409020600501546001600160a01b031633146119555760405162461bcd60e51b8152602060048201526024808201527f4f6e6c79206469737472696275746f722063616e2063726561746520736869706044820152631b595b9d60e21b6064820152608401610573565b6040805160a0810182528481523360208201526001600160a01b03841681830152606081018390526000608082015290516007906119949084906126a9565b908152604080516020928190038301902083518155918301516001830180546001600160a01b03199081166001600160a01b0393841617909155918401516002840180549093169116179055606082015160038201906119f49082612587565b50608082015160048201805460ff19166001836002811115611a1857611a18612215565b0217905550905050827f492580d8002217ac680e66d4bdd4e8c7ff35808636c281021617b4ca690820518260405161080c9190612280565b336000908152600360205260409020546001600160a01b0316611ab55760405162461bcd60e51b815260206004820152601960248201527f4e6f742061207265676973746572656420737570706c696572000000000000006044820152606401610573565b60008083815260026020526040902060060154600160a01b900460ff166005811115611ae357611ae3612215565b14611b005760405162461bcd60e51b815260040161057390612647565b60008281526002602052604090206003810180546001600160a01b0319163317905560060180546001919060ff60a01b1916600160a01b830217905550816000805160206127328339815191526001604051611b5c919061266e565b60405180910390a2610941826040518060400160405280601581526020017414985dc813585d195c9a585b0814dd5c1c1b1a5959605a1b8152503384611d29565b60006001600160a01b0316600783604051611bb891906126a9565b908152604051908190036020019020600101546001600160a01b031603611c165760405162461bcd60e51b815260206004820152601260248201527114da1a5c1b595b9d081b9bdd08199bdd5b9960721b6044820152606401610573565b80600783604051611c2791906126a9565b908152604051908190036020019020600401805460ff19166001836002811115611c5357611c53612215565b02179055507fae57594f667ede24d3c11b1074a763a20137755617ed4ddbcc470c13d6a0e08d8282604051611c899291906126c5565b60405180910390a15050565b6000546001600160a01b03163314611cbf5760405162461bcd60e51b815260040161057390612511565b6001600160a01b038116611d075760405162461bcd60e51b815260206004820152600f60248201526e496e76616c6964206164647265737360881b6044820152606401610573565b600080546001600160a01b0319166001600160a01b0392909216919091179055565b604080516080810182528581526001600160a01b03848116602083019081529282018681524260608401526008805460018101825560009190915283517ff3f7a9fe364faab93b216da50a3214154f22a0a2b415b23a84c8169e8b636ee3600490920291820190815594517ff3f7a9fe364faab93b216da50a3214154f22a0a2b415b23a84c8169e8b636ee4820180546001600160a01b0319169190941617909255519192917ff3f7a9fe364faab93b216da50a3214154f22a0a2b415b23a84c8169e8b636ee590910190611dfe9082612587565b50606091820151600390910155600085815260016020818152604080842081516080810183528981526001600160a01b038916818501524292810192909252948101869052845492830185559383529091208251600490920201908190611e659082612587565b5060208201516001820180546001600160a01b0319166001600160a01b039092169190911790556040820151600282015560608201516003820190611eaa9082612587565b505050837f0a64252f3b82f7e56a5062061bc724525ad4b4aeeb69f1dc73857fbb8d816bd88484604051611edf9291906126e7565b60405180910390a250505050565b80356001600160a01b0381168114611f0457600080fd5b919050565b600060208284031215611f1b57600080fd5b611f2482611eed565b9392505050565b60005b83811015611f46578181015183820152602001611f2e565b50506000910152565b60008151808452611f67816020860160208601611f2b565b601f01601f19169290920160200192915050565b6001600160a01b0384168152606060208201819052600090611f9f90830185611f4f565b8281036040840152611fb18185611f4f565b9695505050505050565b600060208284031215611fcd57600080fd5b5035919050565b60006020808301818452808551808352604092508286019150828160051b87010184880160005b8381101561206c57603f1989840301855281516080815181865261202182870182611f4f565b838b01516001600160a01b0316878c0152898401518a88015260609384015187820394880194909452915061205890508183611f4f565b968901969450505090860190600101611ffb565b509098975050505050505050565b634e487b7160e01b600052604160045260246000fd5b600082601f8301126120a157600080fd5b813567ffffffffffffffff808211156120bc576120bc61207a565b604051601f8301601f19908116603f011681019082821181831017156120e4576120e461207a565b816040528381528660208588010111156120fd57600080fd5b836020870160208301376000602085830101528094505050505092915050565b60008060006060848603121561213257600080fd5b61213b84611eed565b9250602084013567ffffffffffffffff8082111561215857600080fd5b61216487838801612090565b9350604086013591508082111561217a57600080fd5b5061218786828701612090565b9150509250925092565b600080604083850312156121a457600080fd5b82359150602083013567ffffffffffffffff8111156121c257600080fd5b6121ce85828601612090565b9150509250929050565b6000602082840312156121ea57600080fd5b813567ffffffffffffffff81111561220157600080fd5b61220d84828501612090565b949350505050565b634e487b7160e01b600052602160045260246000fd5b6003811061223b5761223b612215565b9052565b8581526001600160a01b0385811660208301528416604082015260a06060820181905260009061227190830185611f4f565b9050611fb1608083018461222b565b602081526000611f246020830184611f4f565b60006020808301818452808551808352604092508286019150828160051b87010184880160005b8381101561206c57888303603f19018552815180518452878101516001600160a01b031688850152868101516080888601819052906122fb82870182611f4f565b606093840151969093019590955250948701949250908601906001016122ba565b6000806040838503121561232f57600080fd5b823567ffffffffffffffff8082111561234757600080fd5b61235386838701612090565b9350602085013591508082111561236957600080fd5b506121ce85828601612090565b8481526001600160a01b03841660208201526080604082018190526000906123a090830185611f4f565b905082606083015295945050505050565b6006811061223b5761223b612215565b60006101008a83528060208401526123db8184018b611f4f565b905082810360408401526123ef818a611f4f565b6001600160a01b038981166060860152888116608086015287811660a0860152861660c08501529150612427905060e08301846123b1565b9998505050505050505050565b60008060006060848603121561244957600080fd5b8335925061245960208501611eed565b9150604084013567ffffffffffffffff81111561247557600080fd5b61218786828701612090565b6000806040838503121561249457600080fd5b823567ffffffffffffffff8111156124ab57600080fd5b6124b785828601612090565b9250506020830135600381106124cc57600080fd5b809150509250929050565b600181811c908216806124eb57607f821691505b60208210810361250b57634e487b7160e01b600052602260045260246000fd5b50919050565b6020808252600d908201526c2737ba103a34329037bbb732b960991b604082015260600190565b601f82111561258257600081815260208120601f850160051c8101602086101561255f5750805b601f850160051c820191505b8181101561257e5782815560010161256b565b5050505b505050565b815167ffffffffffffffff8111156125a1576125a161207a565b6125b5816125af84546124d7565b84612538565b602080601f8311600181146125ea57600084156125d25750858301515b600019600386901b1c1916600185901b17855561257e565b600085815260208120601f198616915b82811015612619578886015182559484019460019091019084016125fa565b50858210156126375787850151600019600388901b60f8161c191681555b5050505050600190811b01905550565b6020808252600d908201526c496e76616c696420737461676560981b604082015260600190565b6020810161267c82846123b1565b92915050565b6000600182016126a257634e487b7160e01b600052601160045260246000fd5b5060010190565b600082516126bb818460208701611f2b565b9190910192915050565b6040815260006126d86040830185611f4f565b9050611f24602083018461222b565b6040815260006126fa6040830185611f4f565b905060018060a01b0383166020830152939250505056fe54d9fcf3da31043daf69e0a8ad35eaf7cfae552733f792dc3d95805eb45bfec201689b180f81c4e9d8925da92a012114998acc4fdf0267f01c37d5cecf707651a264697066735822122031a1c228e0f29d32fe84934a6d5ee119c9e192956c96429484b701e0908b923664736f6c63430008140033",
  "immutableReferences": {},
  "source": "// SPDX-License-Identifier: MIT\npragma solidity ^0.8.20;\n\ncontract SupplyChain {\n    address public owner;  // Contract owner\n\n    // --- NEW: AUDITED HISTORY STRUCTURES ---\n    struct StatusUpdate {\n        string action;\n        address participant;\n        uint256 timestamp;\n        string note;}\n\n    mapping(uint256 => StatusUpdate[]) private medicineHistory;\n    // ---------------------------------------\n\n    constructor() {\n        owner = msg.sender;  // Set deployer as owner\n    }\n\n    // Modifier to allow only the owner to execute certain functions\n    modifier onlyOwner() {\n        require(msg.sender == owner, \"Not the owner\");\n        _;\n    }\n\n    // Transfer ownership to another address (if needed)\n    function transferOwnership(address newOwner) public onlyOwner {\n        require(newOwner != address(0), \"Invalid address\");\n        owner = newOwner;\n    }\n\n    // Enum to represent different supply chain stages\n    enum Stage {\n        Ordered,\n        RawMaterialSupplied,\n        Manufactured,\n        Distributed,\n        Retail,\n        Sold\n    }\n\n    // Enum to represent shipment status\n    enum ShipmentStatus {\n        Pending,\n        InTransit,\n        Delivered\n    }\n\n    // Structure to store details of a medicine\n    struct Medicine {\n        uint256 id;\n        string name;\n        string description;\n        address supplier;\n        address manufacturer;\n        address distributor;\n        address retailer;\n        Stage stage;\n    }\n\n    // Structure for supply chain participants\n    struct Participant {\n        address addr;\n        string name;\n        string location;\n    }\n\n    // Structure for shipment tracking\n    struct Shipment {\n        uint256 medicineId;\n        address sender;\n        address receiver;\n        string trackingId;\n        ShipmentStatus status;\n    }\n\n    // Structure for transaction tracking\n    struct Transaction {\n        uint256 medicineId;\n        address participant;\n        string action;\n        uint256 timestamp;\n    }\n\n    // Mappings to store data\n    mapping(uint256 => Medicine) public medicines;\n    mapping(address => Participant) public suppliers;\n    mapping(address => Participant) public manufacturers;\n    mapping(address => Participant) public distributors;\n    mapping(address => Participant) public retailers;\n    mapping(string => Shipment) public shipments;\n    Transaction[] public transactions;\n\n    // Counters to assign unique IDs\n    uint256 public medicineCounter;\n\n    // Events\n    event MedicineAdded(uint256 indexed medicineId, string name);\n    event ParticipantAdded(address indexed participant, string role);\n    event MedicineStageUpdated(uint256 indexed medicineId, Stage newStage);\n    event ShipmentCreated(uint256 indexed medicineId, string trackingId);\n    event ShipmentUpdated(string trackingId, ShipmentStatus status);\n    event TransactionRecorded(uint256 indexed medicineId, string action, address participant);\n\n    // Add new medicine (only owner)\n    function addMedicine(string memory _name, string memory _description) public onlyOwner {\n        medicineCounter++;\n        medicines[medicineCounter] = Medicine(\n            medicineCounter,\n            _name,\n            _description,\n            address(0),  // No supplier assigned yet\n            address(0),  // No manufacturer assigned yet\n            address(0),  // No distributor assigned yet\n            address(0),  // No retailer assigned yet\n            Stage.Ordered\n        );\n\n        emit MedicineAdded(medicineCounter, _name);\n        // Log initial creation to history\n        recordTransaction(medicineCounter, \"Ordered\", msg.sender, \"Batch initialized\");\n    }\n\n    // Register supply chain participants (only owner)\n    function addSupplier(address _addr, string memory _name, string memory _location) public onlyOwner {\n        suppliers[_addr] = Participant(_addr, _name, _location);\n        emit ParticipantAdded(_addr, \"Supplier\");\n    }\n\n    function addManufacturer(address _addr, string memory _name, string memory _location) public onlyOwner {\n        manufacturers[_addr] = Participant(_addr, _name, _location);\n        emit ParticipantAdded(_addr, \"Manufacturer\");\n    }\n\n    function addDistributor(address _addr, string memory _name, string memory _location) public onlyOwner {\n        distributors[_addr] = Participant(_addr, _name, _location);\n        emit ParticipantAdded(_addr, \"Distributor\");\n    }\n\n    function addRetailer(address _addr, string memory _name, string memory _location) public onlyOwner {\n        retailers[_addr] = Participant(_addr, _name, _location);\n        emit ParticipantAdded(_addr, \"Retailer\");\n    }\n\n    // Supply raw materials (Only Supplier)\n    function supplyRawMaterials(uint256 _medicineID, string memory _note) public {\n        require(suppliers[msg.sender].addr != address(0), \"Not a registered supplier\");\n        require(medicines[_medicineID].stage == Stage.Ordered, \"Invalid stage\");\n        medicines[_medicineID].supplier = msg.sender;\n        medicines[_medicineID].stage = Stage.RawMaterialSupplied;\n\n        emit MedicineStageUpdated(_medicineID, Stage.RawMaterialSupplied);\n        recordTransaction(_medicineID, \"Raw Material Supplied\", msg.sender, _note);\n    }\n\n    // Manufacture medicine (Only Manufacturer)\n    function manufactureMedicine(uint256 _medicineID, string memory _note) public {\n        require(manufacturers[msg.sender].addr != address(0), \"Not a registered manufacturer\");\n        require(medicines[_medicineID].stage == Stage.RawMaterialSupplied, \"Invalid stage\");\n        medicines[_medicineID].manufacturer = msg.sender;\n        medicines[_medicineID].stage = Stage.Manufactured;\n\n        emit MedicineStageUpdated(_medicineID, Stage.Manufactured);\n        recordTransaction(_medicineID, \"Manufactured\", msg.sender, _note);\n    }\n\n    // Distribute medicine (Only Distributor)\n    function distributeMedicine(uint256 _medicineID, string memory _note) public {\n        require(distributors[msg.sender].addr != address(0), \"Not a registered distributor\");\n        require(medicines[_medicineID].stage == Stage.Manufactured, \"Invalid stage\");\n        medicines[_medicineID].distributor = msg.sender;\n        medicines[_medicineID].stage = Stage.Distributed;\n\n        emit MedicineStageUpdated(_medicineID, Stage.Distributed);\n        recordTransaction(_medicineID, \"Distributed\", msg.sender, _note);\n    }\n\n    // Retail medicine (Only Retailer)\n    function retailMedicine(uint256 _medicineID, string memory _note) public {\n        require(retailers[msg.sender].addr != address(0), \"Not a registered retailer\");\n        require(medicines[_medicineID].stage == Stage.Distributed, \"Invalid stage\");\n        medicines[_medicineID].retailer = msg.sender;\n        medicines[_medicineID].stage = Stage.Retail;\n\n        emit MedicineStageUpdated(_medicineID, Stage.Retail);\n        recordTransaction(_medicineID, \"Available for Sale\", msg.sender, _note);\n    }\n\n    // Mark medicine as sold (Only assigned retailer)\n    function sellMedicine(uint256 _medicineID, string memory _note) public {\n        require(medicines[_medicineID].retailer == msg.sender, \"Not the assigned retailer\");\n        require(medicines[_medicineID].stage == Stage.Retail, \"Invalid stage\");\n        medicines[_medicineID].stage = Stage.Sold;\n\n        emit MedicineStageUpdated(_medicineID, Stage.Sold);\n        recordTransaction(_medicineID, \"Sold\", msg.sender, _note);\n    }\n\n    // Get current stage of medicine\n    function getMedicineStage(uint256 _medicineID) public view returns (string memory) {\n        require(_medicineID > 0 && _medicineID <= medicineCounter, \"Invalid medicine ID\");\n\n        if (medicines[_medicineID].stage == Stage.Ordered) return \"Ordered\";\n        if (medicines[_medicineID].stage == Stage.RawMaterialSupplied) return \"Raw Material Supplied\";\n        if (medicines[_medicineID].stage == Stage.Manufactured) return \"Manufactured\";\n        if (medicines[_medicineID].stage == Stage.Distributed) return \"Distributed\";\n        if (medicines[_medicineID].stage == Stage.Retail) return \"Retail\";\n        if (medicines[_medicineID].stage == Stage.Sold) return \"Sold\";\n\n        return \"Unknown\";\n    }\n\n    // Create a shipment\n    function createShipment(uint256 _medicineID, address _receiver, string memory _trackingId) public {\n        require(medicines[_medicineID].distributor == msg.sender, \"Only distributor can create shipment\");\n        shipments[_trackingId] = Shipment(_medicineID, msg.sender, _receiver, _trackingId, ShipmentStatus.Pending);\n\n        emit ShipmentCreated(_medicineID, _trackingId);\n    }\n\n    // Update shipment status\n    function updateShipmentStatus(string memory _trackingId, ShipmentStatus _status) public {\n        require(shipments[_trackingId].sender != address(0), \"Shipment not found\");\n        shipments[_trackingId].status = _status;\n\n        emit ShipmentUpdated(_trackingId, _status);\n    }\n\n    // Get transaction history (Global list)\n    function getTransactions() public view returns (Transaction[] memory) {\n        return transactions;\n    }\n\n    // --- FETCH FULL MEDICINE HISTORY ---\n    /**\n     * @notice Returns the full audit trail for a specific medicine batch.\n     * @dev Satisfies Option A demo requirement.\n     */\n    function getFullMedicineHistory(uint256 _medicineID) public view returns (StatusUpdate[] memory) {\n        require(_medicineID > 0 && _medicineID <= medicineCounter, \"Medicine ID does not exist\");\n        return medicineHistory[_medicineID];\n    }\n\n    // --- REFINED RECORDING LOGIC ---\n    function recordTransaction(uint256 _medicineID, string memory _action, address _participant, string memory _note) internal {\n        // Original logic: Global tracking\n        transactions.push(Transaction(_medicineID, _participant, _action, block.timestamp));\n        \n        // New logic: Granular lifecycle tracking\n        medicineHistory[_medicineID].push(StatusUpdate({\n            action: _action,\n            participant: _participant,\n            timestamp: block.timestamp,\n            note: _note\n        }));\n\n        emit TransactionRecorded(_medicineID, _action, _participant);\n    }\n}",
  "sourcePath": "/mnt/c/Users/PC/feature-medicine-history-integration/contracts/Supplychain.sol",
  "compiler": {
    "name": "solc",
    "version": "0.8.20+commit.a1b79de6.Emscripten.clang"
  },
  "schemaVersion": "3.4.16",
  "updatedAt": "2026-01-05T11:23:52.056Z",
  "devdoc": {
    "kind": "dev",
    "methods": {
      "getFullMedicineHistory(uint256)": {
        "details": "Satisfies Option A demo requirement."
      }
    },
    "version": 1
  },
  "userdoc": {
    "kind": "user",
    "methods": {
      "getFullMedicineHistory(uint256)": {
        "notice": "Returns the full audit trail for a specific medicine batch."
      }
    },
    "version": 1
  }
}